:020000040800F2
:10200000F80C0020652100086D2100086F210008F0
:1020100071210008732100087521000800000000EC
:102020000000000000000000000000007721000810
:1020300079210008000000007B2100083D420008D3
:102040007F2100087F2100087F2100087F210008F0
:102050007F2100087F2100087F2100087F210008E0
:102060007F2100087F2100087F2100087F210008D0
:102070007F2100088D4400087F210008F1440008FA
:102080007F2100087F210008000000007F21000858
:102090007F2100087F2100087F2100087F210008A0
:1020A0007F2100087F2100087F210008214A0008C5
:1020B000254A0008000000007F2100080000000001
:1020C0007F210008000000007F2100087F21000818
:1020D0007F21000800000000000000000000000058
:1020E00000000000000000007F2100080000000048
:1020F00000000000000000000000000000000000E0
:102100007F21000800000000000000007F2100087F
:1021100000000000000000000000000000000000BF
:1021200000000000000000000000000000000000AF
:10213000000000000000000000000000000000009F
:102140000000000000000000000000007F210008E7
:10215000DFF80CD000F06EF800480047A9570008DF
:10216000F80C00200648804706480047FEE7FEE7D7
:10217000FEE7FEE7FEE7FEE7FEE7FEE7FEE7FEE737
:10218000414200085121000840EA01039B0703D0A7
:1021900009E008C9121F08C0042AFAD203E011F8A6
:1021A000013B00F8013B521EF9D27047D2B201E068
:1021B00000F8012B491EFBD270470022F6E710B54C
:1021C00013460A4604461946FFF7F0FF204610BDA5
:1021D0002DE9F05F0546002092469B46884606465C
:1021E000814640241BE0284641464746224600F0EF
:1021F00042F853465A46C01A914110D31146184628
:10220000224600F029F82D1A67EB01084F462246B6
:102210000120002100F020F817EB00094E41201E9C
:10222000A4F10104DFDC484631462A464346BDE8B6
:10223000F09F0000064C074D06E0E06840F0010307
:1022400094E8070098471034AC42F6D3FFF784FFB8
:102250006483000884830008202A04DB203A00FA03
:1022600002F1002070479140C2F1200320FA03F3ED
:10227000194390407047202A04DB203A21FA02F0EB
:102280000021704721FA02F3D040C2F120029140B0
:1022900008431946704700002DE9F84FC3780478C9
:1022A000857883EA04634478E24E240484EA0524B2
:1022B00063401468857983EA0409C379047983EA61
:1022C00004634479240484EA052463405468857ACD
:1022D00083EA040AC37A047A83EA0464437A1B0417
:1022E00083EA05235C409368057B5C40C37B83EAFB
:1022F0000565437B807B1B0483EA00204540D06852
:102300004540D2F8F00040100090DFF82CB34FEABF
:102310001963CAF307400BF5806E5BF823305EF853
:1023200020004340C4F3072087000BF50060C0592C
:10233000EFB256F827707840434010694FEA1A67A9
:1023400043405BF82700C4F307475EF827707840E6
:10235000C5F307274FEA870C0BF5006757F80C7099
:1023600009F0FF0C56F82CC087EA0C077840576933
:102370004FEA146C78405BF82C70C5F3074CE4B25C
:102380005EF82CC056F8244087EA0C07C9F3072CE6
:102390004FEA8C080BF5006C5CF808C00AF0FF08E7
:1023A00056F828808CEA080C87EA0C07D2F818C087
:1023B00087EA0C074FEA156C5BF82C50C9F3074C01
:1023C0005EF82CC085EA0C05CAF3072C4FEA8C088E
:1023D0000BF5006C5CF808C08CEA040CD46985EA43
:1023E0000C056540009C02F12002641E4FEA136C4C
:1023F000009472D05BF82C40C0F3074C4FEA8C0875
:10240000F4460BF5006E5CF808C005F0FF0884EA9E
:102410000C04C7F3072C56F828805EF82CC08CEA11
:10242000080C84EA0C04D2F800C084EA0C094FEAD4
:10243000106C5BF82C40C7F3074C4FEA8C080BF587
:10244000806C5CF808C003F0FF0884EA0C04C5F354
:10245000072C56F828805EF82CC08CEA080C84EA19
:102460000C04D2F804C084EA0C0A4FEA176C5BF83B
:102470002C40C5F3074C4FEA8C080BF5806C5CF8D8
:1024800008C000F0FF0884EA0C04C3F3072C56F8D8
:1024900028805EF82CC0C3F307438CEA080C84EA5A
:1024A0000C04D2F808C0C0F3072084EA0C044FEAF9
:1024B000156C5EF820005BF82C504FEA830C0BF58E
:1024C000806353F80C305D40FBB256F8233058401F
:1024D0004540D068454018E7FFE7DFF860B1B246F5
:1024E000DFF854915BF82C40C0F3074C04F07F44B4
:1024F00056F82C6005F0FF0C06F47F067440C7F315
:10250000072639F8266006F47F46744009F5806690
:1025100016F82CC084EA0C04D2F800C084EA0C043B
:102520004FEA146C81F800C04FEA144C81F801C0E6
:102530004FEA142C81F802C04FEA106CCC705BF8A3
:102540002C40C7F3074C04F07F445AF82CC00CF41D
:102550007F0C84EA0C04C5F3072C39F82CC00CF46A
:102560007F4C84EA0C0403F0FF0C16F82CC084EABC
:102570000C04D2F804C084EA0C044FEA146C81F80D
:1025800004C04FEA144C81F805C04FEA142C81F8BE
:1025900006C04FEA176CCC715BF82C40C5F3074CB2
:1025A00004F07F445AF82CC02D0E0CF47F0C84EA02
:1025B0000C04C3F3072C39F82CC00CF47F4C84EACC
:1025C0000C0400F0FF0C16F82CC084EA0C04D2F8BE
:1025D00008C084EA0C044FEA146C81F808C04FEA82
:1025E000144C81F809C04FEA142C81F80AC0CC724F
:1025F0005BF8254004F07F44C3F30743C0F3072092
:102600005AF8233039F8200003F47F035C4000F4CB
:102610007F404440F8B216F820004440D06844405F
:10262000200E0873200C4873200A8873CC73BDE811
:10263000F88F0000C86C0008C8600008C86800086F
:102640002DE9F04F002358B152B14FF4807B80291F
:1026500009D0C02907D0594505D0981EBDE8F08F94
:102660004FF0FF30FAE780297ED0C0297DD00E25BB
:10267000C2F8F050C4780578867884EA0564457815
:10268000DFF878A22D0485EA06256C401460C47931
:102690000579867984EA056445792D0485EA06255D
:1026A0006C405460C47A057A867A84EA0564457A77
:1026B0002D0485EA06256C409460C47B057B867BEF
:1026C00084EA0564457B2D0485EA06256C40AAF55D
:1026D000C856D46006F58064A4F54065A4F5006989
:1026E00080297CD0C77C90F810C090F8128087EACF
:1026F0000C6790F811C0C0294FEA0C4C8CEA082CEA
:1027000087EA0C071761C77D90F814C090F816800F
:1027100087EA0C6790F815C04FEA0C4C8CEA082C3D
:1027200087EA0C0757617DD0C77E90F818C090F8F3
:102730001A8087EA0C6790F819C04FEA0C4C8CEAB3
:10274000082C87EA0C079761C77F90F81CC087EABE
:102750000C6790F81DC0807F4FEA0C4C8CEA00207B
:102760004740D761594501E05DE05EE07DD1D34649
:10277000B246C846D1691068C1F3074601F0FF0CA4
:102780005AF8266035F82CC006F07F467040C1F339
:1027900007260CF47F4C54F8266006F47F0686EA80
:1027A0000C0670400E0E18F8266070405BF823602F
:1027B0005B1C70401062566846405662D2F808C0F2
:1027C000072B8CEA060CC2F828C0D06880EA0C00FF
:1027D000D0624AD04FEA106C5AF82C7000E026E024
:1027E000166907F07F477E40C0F30747C0F3072C08
:1027F00054F8277035F82CC0C0B207F47F070CF4EA
:102800007F4C87EA0C0718F820007E40464016638C
:10281000506970405063966946407140C2E90E614C
:102820002032A7E733E00A2522E70C2520E7C84637
:10283000D0681168C0F3074700F0FF0C56F8277006
:1028400035F82CC007F07F477940C0F307270CF418
:102850007F4C54F8277007F47F0787EA0C0779400C
:10286000070E18F82770794000E044E05AF823700A
:102870005B1C7940116157684F40576191687940FE
:102880004840C2E906100A2B35D01032D0E7C846BE
:1028900050691168C0F3074700F0FF0C56F8277025
:1028A00035F82CC007F07F477940C0F307270CF4B8
:1028B0007F4C54F8277007F47F0787EA0C077940AC
:1028C000070E18F8277079405AF823705B1C79407E
:1028D000916157684F40D761916879401162D7681C
:1028E0004F405762082B06D0116979404840C2E931
:1028F0000A101832CCE70020B0E60000C8810008BA
:1029000070B50446AA202070552060700E480D4610
:1029100010F8221F61710178491C0170681D6080E8
:1029200001202071281DA27181B2E371201D00F0E9
:1029300077FE611909350872AAB22146BDE87040D8
:10294000012002F0E3BA00009405002000B5A1B018
:1029500080216846FFF731FC08496846497DA52972
:102960000AD001218DF80810022301220521FFF76A
:10297000C7FF21B0002000BD0021F3E7940500202F
:1029800010B5007A20B103A002F036FB002010BD84
:1029900006A0F9E7D6F7B0E5D0C4CCF8D3A6B4F0DA
:1029A0002C20B4EDCEF3210D0A000000CAD5B5BD30
:1029B000D6F7B0E5D0C4CCF8D3A6B4F0210D0A0008
:1029C00010B5A0B080216846FFF7F7FB0C49012045
:1029D0008DF80800497D6C46A52900D100208DF8AE
:1029E000090001231A4606212046FFF789FF10221D
:1029F000214604A001F060F920B0002010BD0000C5
:102A0000940500204261736963496E666F53686183
:102A10006B6548616E64000010B5007A20B105A0B6
:102A200002F0EAFA002010BD0849A52081F8230031
:102A300007A0F5E7D6F7B0E5CED5CAD6D3A6B4F051
:102A40002C20B4EDCEF3210D0A00000094050020E7
:102A5000CAD5B5BDD6F7B0E5CED5CAD6D3A6B4F0A3
:102A6000210D0A0010B500F03BFE02F09DFA00F0C7
:102A70001EFD01F0E9FC01F0E1FA4FF4FA6000F00C
:102A800003FC02F033FA4FF47A71012001F044FDA7
:102A900001F016FC0CA002F0AFFA01F06DF900F0A5
:102AA00067FC022001F0CAF84FF4617000F0ECFB03
:102AB00009A002F0A1FA00230122BDE8104011464E
:102AC00009A002F099BA00005573617274496E69E9
:102AD00074204F4B210D0A000D0A20427370496E7D
:102AE0006974206F6B0A000066775F7665727369A0
:102AF0006F6E203D2025642C2073756256657273BD
:102B0000696F6E31203D2025642C207375625665F7
:102B10007273696F6E32203D2025642E0A0000001A
:102B20007CB50A3910F8014B8DB24FF47A76402DFE
:102B30000CD900F081FDB0FBF6F1CDE90054822301
:102B40000F4A10A002F058FA01207CBD17498A6A8A
:102B5000012A0FD0CA6AA2420CD100F06DFDB0FB71
:102B6000F6F1CDE900548923054A114802F044FAF0
:102B700000207CBDCC622946BDE87C4002F01EB836
:102B8000216000085B5538732025645D2025733A69
:102B9000282564296C656E205B25645D2C205B25EF
:102BA000645D2C6572726F72210A0000940500202A
:102BB0008482000830B5D1B050AA4EA94FA801F0C8
:102BC000A5FD002855D104224EA954A001F074F8A7
:102BD00002224FA954A001F06FF84EAB554A0221D2
:102BE000002000F02BFE4FF47A75F8B100244694D3
:102BF00047944894F42105A84994FFF7DEFA4D481C
:102C000005AA8021801DFFF71BFD4E984A904B942A
:102C10004C944D9405AA46A94AA8FFF73DFB50AA3B
:102C20004EA94FA801F072FD40B120E000F004FD74
:102C3000B0FBF5F11E23404A40A016E042944394B5
:102C4000449402224FA947A0459401F035F84EABB9
:102C500046AA0221002000F0F1FD60B100F0ECFC7A
:102C6000B0FBF5F15823344A41A002F0C5F901F058
:102C700067FD51B030BD42A9092000F023FE0028B5
:102C8000F5D19DF80E019DF80C219DF810319DF8AD
:102C90000F118DE80B009DF80D310F2A18D93DA1B9
:102CA000424802F0B9F900F0C7FCB0FBF5F19DF81D
:102CB0000D010DF1040C9DF810419DF80F319DF8A8
:102CC0000E218CE81D009DF80C014523009017E0B3
:102CD00037A1364802F0A0F900F0AEFCB0FBF5F1E8
:102CE0009DF80D010DF1040C9DF810419DF80F3178
:102CF0009DF80E218CE81D009DF80C014C230090DE
:102D00000D4A314802F078F9102228492FA000F02E
:102D1000D3FF2649A5208875A9E700005049434301
:102D20005F5549443A000000504943435F415451C4
:102D300041313A0000000020F75F00085B5538730E
:102D40002025645D2025733A2825642974686973F9
:102D500020697320536563726574436172642E0A3F
:102D600000000000504943435F41545141323A0052
:102D70005B5538732025645D2025733A2825642926
:102D80004D69666172655F41757468206572726F26
:102D9000722E0A002530327825303278253032788C
:102DA000253032782530327800000000940500206C
:102DB0002530317825303278253032782530327818
:102DC000253032780000000004820008BFA8BAC590
:102DD0000000000070B50D46044600F0B9FF20EA7F
:102DE00005012046BDE8704002F001B910B5802110
:102DF0000A2001F0D8F80A2000F0AAFF002800D02D
:102E0000012010BD2DE9F047C2B04FF4807101A838
:102E1000FFF7D3F901AC00F00FFC07464FF00808AC
:102E20004FF47A790025694EC2E000F040FBDFF8EC
:102E3000A0A1B6E000F03BFB00F0FEFB07463078B7
:102E4000092838D2DFE800F0050D183E4E5C6B8093
:102E500092009DF80401AA28EBD120700120708017
:102E60005BE09DF80401552825D170885521215437
:102E7000401C7080022050E07088022802D0032895
:102E800004D01BE09DF80411B18017E0B1889DF8D3
:102E9000042141EA0221B180757005290CD200F0AD
:102EA000CBFBB0FBF9F1B088009040F26523494AB2
:102EB00049A002F0A1F873E0032131709DF80411DC
:102EC00021543EE09DF80411012969D17078401C1D
:102ED000707070882154B188491EB180401C708088
:102EE00004201AE070789DF804110844707070880E
:102EF0002154B188491EB180401C708005200CE02F
:102F000070789DF804110844707070882154B1885D
:102F1000491EB180401C70800620307041E07078FE
:102F20009DF804110844707070882154B188491EBE
:102F30000904090CB18002D00721317001E086F844
:102F40000080401C70802CE070789DF804110844CB
:102F5000707070882154401C7080B088401E80B210
:102F6000B08001281DD186F800801AE070889DF895
:102F700004112154401C81B271809DF804017278C3
:102F8000904203D1204600F0D7FB09E000F054FB4B
:102F9000B0FBF9F140F2BA230E4A18A002F02CF867
:102FA000357041A9504600F09FF900283FF442AF28
:102FB00000F042FB07F10A01884204D800F03CFB14
:102FC000B842BFF432AF42B0BDE8F0871C00002029
:102FD000D40700206D6000085B5538732025645DC0
:102FE0002025733A282564296C656E6774683D2531
:102FF000642C6572726F722E0A0000005B55387384
:103000002025645D2025733A2825642943422063E6
:103010006865636B73756D206572722E0A0000001F
:10302000017C0A2906D000214174012201460020BA
:1030300000F016BF00F0EABA2DE9FE43734C00F031
:10304000FBFA07464FF001094FF47A780026704DDD
:10305000CFE000F0F1FA074628780C282AD2DFE802
:1030600000F0060FC1C11A2A395C69768EA19DF85D
:103070000800AA281ED120704846A5F802907CE0DE
:103080009DF808105529F5D104202870688821542E
:10309000401C68800DE068889DF808102154401C91
:1030A0006880A888401C80B2A880052802D305202B
:1030B0000EE0AE8096E068889DF808102154401C10
:1030C0006880A888401C80B2A8800528F2D306201A
:1030D0002870EEE768889DF808102154401C80B2E3
:1030E0006880A988491C89B2A98002297AD3204422
:1030F00030F8020CA880FF280BD900F09DFAB0FB35
:10310000F8F1A88800908223424A43A001F074FF9E
:1031100067E0072028706E7064E068889DF80810EA
:103120002154401C688068789DF808100844687035
:10313000082022E068889DF808102154401C68800F
:1031400068789DF8081008446870092015E06888C0
:103150009DF808102154401C688068789DF808107C
:1031600008446870A888042801D3001F00E00020EC
:103170000004000CA88013D00A20287032E0688870
:103180009DF808102154401C688068789DF808104C
:1031900008446870A888401E0004000CA88021D153
:1031A0000B20EAE768789DF8081088420BD16A88FE
:1031B000214621A000F080FD234806716988204641
:1031C000FFF72EFF0DE000F037FAB0FBF8F19DF8A5
:1031D00008206878CDE90002B2230E4A1BA001F056
:1031E0000BFF2E7002A9274800F07EF800283FF45C
:1031F00030AF00F021FA07F10A01884203D800F04D
:103200001BFAB842EED2BDE8FE8300008800002021
:1032100016000020056000085B5538732025645DAA
:103220002025733A282564296C656E3D25642C653C
:1032300072726F722E0A0000446562756752656390
:103240007650726F63000000240000205B553873D5
:103250002025645D2025733A2825642973756D3D0A
:10326000253032782C706B742073756D3D253032AB
:10327000782C6572726F722C64726F7020706B7430
:103280002E0A0000C807002070B5054600244FF440
:103290007A7603E0304600F005F8641CAC42F9D3BE
:1032A00070BD000070B54FF0E02500216C69094A3F
:1032B000AB6912785043AA699A42FCD002D2A3EBC0
:1032C000020302E0A4EB0206334419441346814290
:1032D000F1D370BD740000200028FDD00021C18012
:1032E0000181418108467047428903899A4213D07F
:1032F000028903681344521C02811A780A7081887B
:103300000289914201D800210181C18811B1C1888F
:10331000491EC180002070474FF0FF3070470023E6
:103320004360836001608280184670474289038948
:103330009A42428901D283881A440389D21A838827
:10334000521C934210D9428903681344521C428193
:103350001970C188491CC18081884289914201D875
:1033600000214181002070474FF0FF30704700007E
:103370002DE9F0410024164D4FF47A76012740F2F2
:103380000A2800F094F800F07DF888B100F08FF87A
:10339000641CE4B26F7500F04FF9B0FBF6F14346E0
:1033A0000C4A0DA001F028FE322CEAD3BDE8F081D2
:1033B00000F07DF8A520687500F03EF9B0FBF6F14D
:1033C000BDE8F04140F20223024A0DA001F014BE14
:1033D00094050020B96000085B5538732025645DB2
:1033E0002025733A28256429464D31373558585FD2
:1033F000496E6974206572726F722E0D0A000000AA
:103400005B5538732025645D2025733A282564298F
:10341000464D31373558585F496E6974204F4B2EF1
:103420000D0A000010B54FF090440121204602F033
:1034300056F90A20FFF728FF00F039F8012120464D
:1034400002F04FF90A20FFF71FFF00F030F80120CB
:1034500000F07EFC04460146202204A001F0CCFDD1
:10346000202C01D0012010BD002010BD7265675FC7
:1034700064617461203D205B2523785D2C5B2523EE
:10348000785D0A0010B500F012F800F009FEFFF7B1
:10349000C9FF10B14FF0FF3010BD00F008F8002058
:1034A00000F01DFB032000F08AFD002010BD02F09B
:1034B000DBB810B5002303E010F8014BCC545B1CC3
:1034C0009342F9D3002010BD2DE9F05F15468846E0
:1034D0008246FFF7ECFF02F045F8AAF10060C0F366
:1034E0000906870AC6F58064A54200D82C46DFF895
:1034F0008CB0FFF7DCFF4FF0006000EB87208146C7
:103500004FF480621D49FFF7D4FF002005E0321818
:103510001BF80210FF2902D1401CA042F7D3A042A1
:1035200023D2484601F0E0FF342001F0CFFF002015
:103530005A4604E018F800108319401CD154A042E8
:10354000F8D348464FF480720C4900F019F8A542B0
:103550000FD0281BA044A244002685B24FF48064FB
:103560007F1CA542C5D82C46C3E7A2084146504659
:10357000EBE701F0B1FF0020BDE8F09F93010020D0
:103580002DE9F84390468946064600254FF47A77A0
:103590001BE00024342001F099FF59F82510304633
:1035A00001F0F0FFB0B10120FFF76EFE2046641C71
:1035B000B842F8D900F040F8B0FBF7F14023064AD2
:1035C00006A0009601F018FD6D1C4545E1D30020D2
:1035D000BDE8F883361DF7E7826000085B55387355
:1035E0002025645D2025733A28256429D0B4666CB3
:1035F000617368B3ACCAB12C205B307825785D2C40
:1036000020B4EDCEF3212121200A00000121817494
:10361000C1740021017504220146002000F020BC85
:10362000034610B50020024603E09C5C521C204477
:10363000C0B28A42F9DB10BD0148806870470000C3
:103640002C000020064A5178481C5070054821B1D2
:1036500000215170402102F044B8402102F03FB8EF
:103660007C00002000040048002909D1054A0028F8
:103670004FF00201104601D002F033B802F02FB82B
:1036800070470000000400482DE9F041114D124E32
:103690000024314655F8240002F083FC98B10F490C
:1036A00004EB440001EB800755F8240002F036FCDF
:1036B000C1B23846FFF73AFE55F824003146BDE85E
:1036C000F04102F066BC641CE4B2022CE1D3BDE818
:1036D000F08100004C00002005000507C80700200D
:1036E00010B540F2125002F0C3FA0D4C01224023F3
:1036F0001146204601F0FCFF402303220021204612
:1037000002F01AF8012280231146204601F0F0FF52
:10371000204680230322BDE81040002102F00CB8AF
:1037200000040048C279012A03D0022A03D1FFF71E
:1037300027B9FFF771B9704770B50D460446FFF71A
:10374000B6FEA279012A09D0022A0DD0032A11D18E
:1037500029462046BDE8704000F01CB829462046A6
:10376000BDE87040FFF7DEBF29462046BDE8704047
:1037700000F001B870BDC279012A08D0022A08D031
:1037800000210123017202221946FFF7B9B800F0A7
:1037900031BD704770B50E46C17900240546012938
:1037A00006D0022928D13146BDE8704000F074BB34
:1037B0000146324611A000F07FFA3146284601F05A
:1037C00055F988B1FFF738FF4FF47A71B0FBF1F18A
:1037D0004FF403730F4A10A001F00EFC01242046A1
:1037E000BDE8704001F020B9052000F027FA124929
:1037F000A52081F82500F2E770BD0000454E554D2B
:103800005F555047524144455F52455155455354C9
:10381000000000005C6000085B5538732025645D83
:103820002025733A28256429B2BBBFC9D2D4C9FD6B
:10383000BCB62121210A00009405002000B587B004
:1038400010B1012802D004E0602000E061208DF872
:10385000040088008DF8050010788DF80600507877
:103860008DF8070090788DF80800D0788DF8090061
:1038700010798DF80A0050798DF80B0018788DF8C2
:103880000C0058788DF80D0098788DF80E00D878D7
:103890008DF80F00012000F0A8F9FFF7A7FA05A89E
:1038A000009004AB0C2201A90E2000F05AF838B9A0
:1038B000082000F04DFA000702D5002007B000BD37
:1038C0000120FBE77FB504460D46012000F08DF98D
:1038D00030228DF808208DF80940FFF787FA03A8F9
:1038E00000902B46022202A90C2000F03AF8044670
:1038F000FFF7A2FE4FF47A71B0FBF1F10398CDE926
:1039000000044FF4E373064A06A001F075FB14B9F6
:103910000398802802D0012004B070BD0020FBE78E
:10392000F08100085B5538732025645D2025733ACB
:1039300028256429726563655F6269746C656E3AF7
:10394000202564202C726573756C74203D202564DD
:10395000200A000010B5FFF7AAFDBDE81040FFF7F0
:1039600029B92DE9F04799461446884607460026AE
:10397000DDF820A0FFF73AFAFFF799FD20210B2090
:1039800001F035FB7F21042001F031FB0E2F07D120
:103990004146204601F01EFB80210D2000F003FB74
:1039A00080212A2000F0FFFA3946012001F01FFB98
:1039B000FFF77DFD042000F0CBF90546C00703D0DA
:1039C00020250C2F5CD076E00E2F11D0042F12D0C2
:1039D0000C2FEDD1680739D5C4B3202C414629D925
:1039E000202001F0F7FA203CE4B208F1200825E09D
:1039F000E806DDD560E0680717D5B4B1202C414654
:103A000004D2204601F0E6FA002406E0202001F06E
:103A1000E1FA203CE4B208F1200880210D2000F0FA
:103A2000C2FA0421084601F0E2FA6806C0D5002C6B
:103A3000BED141E0204601F0CDFA002480210D20C6
:103A400000F0B1FA0421084601F0D1FA280712D596
:103A5000680610D57CB90A2000F07AF920280AD926
:103A600009EB0601202000F065F92036F6B20821A6
:103A7000042001F0BCFAA8069AD5002C98D10025A4
:103A80000A2000F065F907460C2000F061F900F00B
:103A900007040FB904B1012709EB0601384600F00D
:103AA00049F9F019C0B21CB1C0000838011900E092
:103AB000C100CAF800101DB9062000F049F90546FA
:103AC00080210C2000F06FFA2021012001F08FFAF4
:103AD00080210D20FFF77EF92846BDE8F08710B55C
:103AE0000446FFF7E4FC24B1012C45D0022C5DD044
:103AF0005AE010210C2000F056FA4021152000F069
:103B000052FA0021122001F072FA0021132001F074
:103B10006EFA8021392000F046FA01213C20FFF79F
:103B200059F907213D20FFF755F903213E20FFF702
:103B300051F9FF21332001F05AFA0721322001F018
:103B400056FAF121272001F052FA3F21282001F0F6
:103B50004EFA0121292001F04AFA4021262001F0E5
:103B600046FA0D21192001F042FA8421182001F0B3
:103B70003EFA4021362015E010210C2001F037FAE2
:103B80008321122001F033FA8321132001F02FFA50
:103B9000F421272001F02BFAF421232001F027FA49
:103BA000002120E001F023FA002010BD10210C209C
:103BB00001F01DFA9221122001F019FA962113202A
:103BC00001F015FAF421272001F011FA2021282014
:103BD00001F00DFA4F21232001F009FA20212920BC
:103BE00001F005FA07211520DCE770B540F29F616E
:103BF00000244843611E01224FF6FF7301EBC00110
:103C00001D1102EB4400B1FBF0F0984202D3641C9A
:103C1000AC42F6D385B2C4F307212A2000F0C3F9E1
:103C2000E1B22B2001F0E3F9290A2C2001F0DFF9A1
:103C3000E9B22D2001F0DBF9002070BD70B505461A
:103C400000241C4E09E00A20FFF71EFB2046641CDE
:103C5000C82802DD4FF0FF3070BD2021304601F052
:103C600042FD0028EFD10821304601F03AFD6420E2
:103C7000FFF718FB0821304601F031FD6420FFF703
:103C800011FB002411E0FFF712FC1021304601F077
:103C900028FD6420FFF706FB1021304601F01FFDD0
:103CA0006420FFF7FFFA641CE4B2AC42EBD30020BF
:103CB00070BD0000000400487CB515460E46044661
:103CC000FFF7BAFC4FF47A71B0FBF1F151230A4AC5
:103CD0000AA0CDE9004501F08FF9002404E0315D30
:103CE00011A001F089F9641CAC42F8D3BDE87C4016
:103CF0000FA001F081B90000AE6000085B55387379
:103D00002025645D2025733A2825642963616C6C45
:103D10002062792025732C6C656E3D25642C7064BF
:103D20006174613A00000000253032580000000044
:103D30000A00000070B50D460646002405E0092083
:103D400000F006F82855641CE4B2B442F7D370BD05
:103D500000F058B8064A1178481C1070054821B187
:103D600000211170802101F0BCBC802101F0B7BCA2
:103D70007C0000200004004810B540F2125001F011
:103D800077FF01231E4C1A461946204601F0B0FC6D
:103D9000012303220021204601F0CEFC0122102342
:103DA0001146204601F0A4FC1023032200212046E6
:103DB00001F0C2FC012208231146204601F098FCC4
:103DC000082303220021204601F0B6FC2023012213
:103DD0000021204601F08CFC2023032200212046F4
:103DE00001F0AAFC0121204601F07BFC10212046B5
:103DF00001F075FC2046BDE81040082101F06FBCC1
:103E00000004004870B504464FF090451021284644
:103E100001F065FC802040EA4400C0B200F098F94F
:103E200000F093F904461021284601F05AFC204680
:103E300070BD70B50E4604464FF0904510212846DF
:103E400001F04DFC7E2000EA440000F081F930468C
:103E500000F07EF92846BDE87040102101F041BC19
:103E600070B50C46AA21217055216170E071101DBA
:103E7000A0810120A073D01C81B2154604F10E0070
:103E8000FFF7CEFB611912354874AAB22146BDE88E
:103E90007040002001F03AB870B500F108042048E5
:103EA000002590F82500A52801D0012512E0204624
:103EB000FEF736FE4FF47A76022811D050B1012574
:103EC000FFF7BAFBB0FBF6F140F2F113154A16A06A
:103ED00001F092F82178284600F050F8002070BDDB
:103EE0002178002000F04AF82F20FFF7A7FEFFF707
:103EF000A3FBB0FBF6F14FF4F3730A4A12A001F0F2
:103F00007BF83046FFF7C0F9BFF34F8F19490868B7
:103F1000194A00F4E06010430860BFF34F8FFEE7DA
:103F200094050020496000085B5538732025645DC6
:103F30002025733A28256429C9FDBCB6B4EDCEF31B
:103F40002121210A000000005B5538732025645DA3
:103F50002025733A2825642944454255475F434D3F
:103F6000445F5245424F4F54D6D8C6F4CFB5CDB377
:103F7000A3A10A000CED00E00400FA0530B5A1B0E1
:103F80000C46054680216846FEF717F98DF8085063
:103F9000022368468DF8094003221946FEF7B0FC5B
:103FA00021B0002030BD70B50C460546FFF7D0FEAD
:103FB00040EA0401284601F01AF8002070BD70B5EF
:103FC0000446FFF774FA1420FFF7C2FE00F0030066
:103FD000A04201D1002070BD34B1012C06D0022CCA
:103FE0000ED0032C0ED006E0032100E001211420A6
:103FF000FEF7F0FE0546C820FFF746F9284670BDDB
:104000000221F4E703211420FFF7CDFFF2E70000BF
:1040100010B540F2125001F02BFE074C0122022392
:104020001146204601F064FB204602230322BDE82E
:104030001040002101F080BB0004004810B50024AE
:1040400018210C48FEF7B9F80A48092104EB44028C
:1040500000EBC2025170641CF8D00121817134213F
:10406000C171FFF7D5FF3421BDE81040002000F0FA
:1040700053BA0000E008002058B109280CD00A28E3
:104080000DD00123401E834003EA01001146FFF7D3
:10409000EBBA11460020FAE711460120F7E7704716
:1040A00010B540F2115001F0E3FD01224FF09044B1
:1040B00010231146204601F01BFB10230322002190
:1040C000204601F039FB01231A461946204601F02B
:1040D0000FFB012303220021204601F02DFB0122CA
:1040E00020231146204601F003FB20230322002158
:1040F000204601F021FB012280231146204601F0D9
:10410000F7FA802303220021204601F015FB40230B
:1041100001220021204601F0EBFA40230322002176
:10412000204601F009FB0121204601F0DAFA1021B6
:10413000204601F0D6FA8021204601F0D2FA20462E
:10414000BDE81040202101F0CABAA520AFF30080DD
:104150002DE9F041054600244FF0904728064FF026
:104160008001384602D501F0BCFA01E001F0B7FA4F
:104170002021384601F0B5FA0120FFF793F86806D0
:10418000060E4021384601F0AEFA40EA060520212D
:10419000384601F0A4FA0120FFF784F8641CE4B269
:1041A000082CDBD32846BDE8F081000010B5A0B094
:1041B00080216846FEF701F800218DF808106C4652
:1041C000102208490DF10900FDF7DEFF012302224C
:1041D00015212046FEF794FB03A000F00DFF20B050
:1041E000002010BD94050020BFA8BAC5C9CFB1A852
:1041F000210D0A0010B5007A28B105A000F0FCFEE0
:104200004FF0FF3010BD08A000F0F6FE002010BDFA
:10421000D6F7B0E5B6C1BFA8D3A6B4F02C20B4ED54
:10422000CEF3210D0A000000CAD5B5BDD6F7B0E522
:10423000B6C1BFA8D3A6B4F0210D0A007047000094
:104240001A48016841F00101016001688907FCD545
:104250004168174A114041604168164A1140416067
:104260000168154A11400160C16A144A1140C162D7
:10427000016B40F2031291430163016B21F4803121
:104280000163016B21F000410163416B21F00101E9
:104290004163D0F8C01021F48031C0F8C010002173
:1042A0008160C0F8CC1001F00DBD0000001002408C
:1042B0000C00FF08FFFFC277FFFFF2FEF0FFFF3F99
:1042C00070B540F61A1001F047FC294C4FF47A758E
:1042D00001281ED040F61B1001F03EFC01281FD023
:1042E00040F61C1001F038FC012820D040F61D10CB
:1042F00001F032FC012821D040F61E1001F02CFC08
:10430000012822D040F61F1001F026FC012823D0FE
:104310002AE0A0686223B0FBF5F1164A16A021E05E
:10432000A0686623B0FBF5F1124A1DA01AE0A06850
:104330006A23B0FBF5F10F4A21A013E0A0686E23B9
:10434000B0FBF5F10B4A26A00CE0A0687223B0FB8D
:10435000F5F1084A2BA005E0A0687623B0FBF5F143
:10436000044A31A000F048FEBDE8704001F014BBE3
:104370002C0000209C6000085B5538732025645D8C
:104380002025733A28256429CFB5CDB3CDE2B2BF3D
:10439000B8B4CEBBB9DCBDCCB8B4CEBB0A0000000B
:1043A0005B5538732025645D2025733A28256429E0
:1043B000CFB5CDB3C9CFB5E7B8B4CEBB0A000000C6
:1043C0005B5538732025645D2025733A28256429C0
:1043D000CFB5CDB3C8EDBCFEB8B4CEBB0A0000006B
:1043E0005B5538732025645D2025733A28256429A0
:1043F000CFB5CDB3B6C0C1A2BFB4C3C5B9B7B8B409
:10440000CEBB0A005B5538732025645D2025733AC6
:1044100028256429CFB5CDB3B4B0BFDABFB4C3C5C6
:10442000B9B7B8B4CEBB0A005B5538732025645DBC
:104430002025733A28256429CFB5CDB3B5CDB9A6CB
:10444000BAC4B8B4CEBB0A0010B5042001F07EFC9B
:104450000B480C490C4B0068B0FBF1F2B0FBF1F1DA
:104460004FF47A7041434FF0E0201A70026942F035
:10447000020202614161016941F00101016110BD67
:104480008000002040420F007400002070B5174DDE
:10449000154C0121284601F00BFD00281BD00121FD
:1044A000284601F001FD617920790022FFF7E4FD43
:1044B0002079401C207120790B280CD1E08A401C07
:1044C00080B2E082A18A884206D2E18A2069405CFB
:1044D00060710020207170BDA52020702846BDE8C5
:1044E000704001F07FBC0000E0080020002C01407B
:1044F00010B501218C07204601F0DAFC002807D016
:104500000121204601F0D0FC02488168491C8160ED
:1045100010BD00002C0000207FB504461E480E464A
:1045200030F8140001F0A4FB1B4D0A3555F82400A7
:1045300001F01EFC5320ADF800000020ADF80C0087
:10454000ADF80200ADF8040002968DF80E0055F8A3
:104550002400694601F054FC55F82400012101F0C3
:104560009FFC55F82400012101F046FCA5F10C0048
:104570000122005D114601F0BBF955F8240001F05D
:10458000F1FB55F8240001F032FC002C02D1286820
:1045900001F028FC7FBD00002E0000202DE9F04333
:1045A0008DB0064600200190029003900490059083
:1045B000086008710C4620218DF818108DF81C0039
:1045C0008DF820008DF8240080211220FEF702FCD7
:1045D00080211320FEF7FEFB80210E2000F007FD56
:1045E00000211D2000F003FD0DF128080DF1040944
:1045F00004AD8DF828609DF818008DF829009DF80D
:104600001C100D2000F0F3FC9DF82420214608F139
:104610000200FDF7B9FD9DF82400801CC7B20120FF
:10462000FFF7E3FA02AB3A460AA90C20CDF8009056
:10463000FFF797F9202867D000072AD50E20FFF74B
:1046400087FB00F01F0709AB08AA06A9384600F04F
:104650001EF907A9384600F0F9F89DF8242002A9B0
:1046600004A8FDF791FD9DF824009DF82020284422
:1046700010F8011D11400170002205E0A05CA95C4A
:104680000843A054521CD2B29DF824008242B0D2FA
:10469000F4E70198082802D9C0F3C70600E0012614
:1046A0009DF8240018B1311806292DD107E0052EF8
:1046B0002AD1324602A92046FDF766FD16E02844BD
:1046C000324602A9401EFDF75FFD00200CE09DF878
:1046D000241001440A19294412F8013D11F8011C63
:1046E0000B43401C1370C0B2B042F0D32078617805
:1046F000E2784840A178514048402179884203D16E
:1047000000200DB0BDE8F0830120FAE770B5154632
:104710000E46044600F038F880B9617871B9217806
:1047200089090CD131469320FFF738FF30B92A466A
:104730003146932000F059F8002800D0012070BDC8
:104740001FB550208DF8040000208DF805000146AB
:104750000D2000F04CFC80211220FFF724FC80216A
:104760001320FFF720FC08210846FEF733FB012049
:10477000FFF73BFA03A8009002AB022201A90C202C
:10478000FFF7EFF804B010BD1FB5044600200290FB
:1047900080211220FEF71EFB80211320FEF71AFB5A
:1047A00008211320FFF7FFFB07210D2000F01FFC5D
:1047B00026208DF80C000120FFF717FA02A80090C0
:1047C00001AB012203A90C20FFF7CBF810B9029826
:1047D000102802D0012004B010BD9DF80400207004
:1047E0009DF8050060700020F5E770B50C460646A0
:1047F00086B0154600210D2000F0F9FB8021122023
:10480000FFF7D1FB80211320FFF7CDFB8DF804606B
:1048100070208DF80500002001A9225C0B18401CB7
:10482000C0B29A700528F8D30120FFF7DEF905A879
:10483000009003AB072201A90C20FFF792F8002893
:1048400002D19DF80C10297006B070BDE8B1421E6F
:10485000082A02D200EB001017E0A0F109030201C0
:10486000082B03D2803A104408380EE0A0F111035F
:10487000082B02D21044103807E0A0F11903072BCF
:1048800004D2A2F5C0721044183808707047F0B511
:10489000042510B958240C701D70441E0126082CE4
:1048A00002D221340C701E70A0F10904082C03D22E
:1048B00031340C7002241C70A0F111040327082C61
:1048C00002D241340C701F70A0F11904072C02D2DF
:1048D000383008701D70087800F00700092807D2EA
:1048E000DFE800F0060507090B0D0F111300167025
:1048F000F0BD1770F0BD072008E00F2006E01F2074
:1049000004E03F2002E07F2000E0FF201070F0BDB7
:104910002DE9F05F894604463E4900EB440001EB77
:10492000800A3D48934630F8140001F0A1F93A4856
:10493000001D30F8140001F09BF9374F012120379A
:10494000A7F1100857F8242058F8240000F09CFE26
:1049500007F10805A5F1100655F8242056F82400A3
:10496000012100F091FE57F8243058F8240001226C
:10497000022100F0BDFE57F824004FF6FF770346F2
:104980003A46002100F0D8FE55F8243056F82400AD
:104990000122022100F0ACFE55F8243056F8240024
:1049A0003A46002100F0C8FE203D55F8240001F0F1
:1049B000BDFA55F82400594601F084FA55F8240050
:1049C000042101F006FB55F82400082101F009FB41
:1049D000B9F1010F16D155F82400052101F0CEFAE6
:1049E000A5F10C000122005D022100F081FF0B48BF
:1049F0004FF4807200EB04215046FEF790FC5046C5
:104A0000FEF76AFC55F8240001F0A8FA0020BDE882
:104A1000F09F0000C807002044000020C8050020C7
:104A2000FEF732BEFEF730BE30B5A1B0054680219C
:104A30006846FDF7C2FB6C4601238DF8085003223F
:104A400019462046FDF75CFF0B22214602A0FFF726
:104A500033F921B0002030BD557067726164655232
:104A600065717565737441636B0000002DE9FF414A
:104A7000244D816800242960C1686960018A298108
:104A8000807CA872FEF7D8FD4FF47A76B0FBF6F181
:104A90002868AF7A2B896A688DE88D004FF4D0734F
:104AA000194A1A4800F0A8FA194801218162002128
:104AB000C16201632868B8B16868A8B1A87A012802
:104AC00012D000F04FFD134D05EB842000F00CFDDB
:104AD000342000F0FBFC641C1A2CF5D300F0FCFC25
:104AE000002004B0BDE8F081FEF7A6FDB0FBF6F1B2
:104AF0004FF4D473044A08A000F07EFA4FF0FF3060
:104B0000EFE700008801002033600008C882000839
:104B100094050020008800085B5538732025645DEB
:104B20002025733A2825642966696C6573697A655E
:104B3000206F72207061636B616765206F72206601
:104B4000775F766572736F6E2C206572726F72215B
:104B500021210000F8B500258DF800502C46FEF705
:104B6000A6FC0D4E0D4F09E001226946E019FEF743
:104B7000A0FC9DF80000641C284485B23068A04267
:104B8000F2D83289AA4205D0294605A000F034FAAD
:104B90000120F8BD0020F8BD880100200088000831
:104BA000D0A3D1E9B3F6B4ED2121215B2523785DB3
:104BB0002C205B2523785D0D0A0000002DE9F041D3
:104BC000614E0C4603466149306B8AB00844224668
:104BD0001946FEF779FC012850D0306B5C4F204419
:104BE000642148433968B0FBF1F5FEF725FD4FF429
:104BF0007A78B0FBF8F1306B3A682044CDE90020B8
:104C000038230295534A54A000F0F6F9B06A796847
:104C1000884273D1002971D0326B396822449142A5
:104C2000F7D1FEF709FD4546B0FBF5F13C23494AB3
:104C300054A000F0E1F97A685EA0B16A00F0DCF9F6
:104C4000306B3A68011963A000F0D6F9FEF7F4FC66
:104C5000B0FBF5F1306B00903F233E4A64A000F0BA
:104C6000CBF9FFF777FF68B1FEF7E6FCB0FBF5F193
:104C70004323384A6DA000F0BFF95CE076A000F055
:104C8000BBF958E03889ADF820003868794CCDE997
:104C90000640794E0A2206A93046FEF715FC0A2284
:104CA00003A93046FEF705FC0A2206A93046FEF7A6
:104CB00000FCBDF820003989884220D107993A6864
:104CC00091421CD10699A14219D1BDF81410884215
:104CD00015D104990798884211D103990698884202
:104CE0000DD1FEF7A9FCB0FBF5F15423194A63A0DE
:104CF00000F082F902200AB0BDE8F0811DE0FEF765
:104D00009BFCB0FBF5F1DDE90632BDF820008DE833
:104D10000D005A230F4A65A000F06EF9FEF78CFCD7
:104D2000B0FBF5F13A683889CDE900025B23094A06
:104D30006D4800F061F90120DDE7401CB062306B86
:104D4000204430630020D6E7940500200088000846
:104D500088010020136000085B5538732025645DCE
:104D60002025733A28256429746F74616C202564AA
:104D70002C6765742025642C205B256425255D2E19
:104D80000A0000005B5538732025645D2025733AC6
:104D900028256429D7EEBAF3D2BBB8F6B0FCD2D13D
:104DA000BEADD0B4CDEA2C20BFAACABCD0A3D1E9F5
:104DB0002E0A000043757272656E745061636B61F8
:104DC0006765203D205B25645D2C205B25645D0AC2
:104DD000000000005265636569766553697A652055
:104DE0003D205B25645D2C205B25645D0A0000008E
:104DF0005B5538732025645D2025733A2825642986
:104E0000476C6F62616C496E666F2E557067726198
:104E1000646546772E416464724F666673657420DC
:104E20003D205B2523785D2E0A0000005B5538731A
:104E30002025645D2025733A2825642975706772E2
:104E400061646520636865636B73756D206572725C
:104E50006F722E0A000000003131313131313131B1
:104E60003131313131313131312C206572726F7213
:104E700021000000DEBC55AA00FC00085B55387319
:104E80002025645D2025733A282564297570677292
:104E900061646520737563636573732C72657365F4
:104EA00074206566666563742E0A00005B5538736E
:104EB0002025645D2025733A282564297570677262
:104EC000616465206572726F722C205B2523785DAA
:104ED0002C205B2523785D2C205B2523785D2C20FE
:104EE0006572726F722E0A001883000810B54FF4B5
:104EF000E134224601210020FFF70AFD224601216C
:104F0000BDE810400846FFF703BD00002DE9F0475B
:104F100017468846054600240E4E40F2077910E0F9
:104F2000FEF7C5FA18F8041056F8250000F0FAFF4D
:104F300056F82500494601F016F80028F8D0641C00
:104F4000A4B2BC42ECD30A20FEF79EF90020BDE8D3
:104F5000F08700004C00002070B5124E054600247A
:104F60000221304600F0BBFB0820FEF79BF9E80762
:104F70004FF00201304602D000F0B3FB01E000F038
:104F8000AEFB0820FEF78EF9641C6D08E4B2082C15
:104F9000EDD30221304600F0A4FBBDE870400820AC
:104FA000FEF780B90004004810B54FF410642046A5
:104FB00000F0E2FD204600F0EDFD0128FAD10421C9
:104FC0004FF47F6000F028FB00F04EFBBDE810407E
:104FD00000F052BB70B50D460646002404E0295D82
:104FE000092000F004F8641CB442F8D370BD10B579
:104FF000FEF71FFF002010BD0FB4054B10B503A92D
:10500000044A029800F02CF810BC5DF814FB000074
:10501000B9550008840000200FB4084B10B504A94E
:1050200002AA039800F01CF8044602A9002000F030
:1050300048FA204610BC5DF814FB0000C354000879
:1050400002E008C8121F08C1002AFAD17047704751
:10505000002001E001C1121F002AFBD170470000AF
:105060002DE9FF4F8DB00F460546002606E02528A6
:105070000BD0DDE90F1290476D1C761C28780028B4
:10508000F5D111B03046BDE8F08F0024A246A1460C
:105090000122EC4900E0044315F8013F203B02FAED
:1050A00003F00842F7D128782A2810D06FF02F0299
:1050B0002878A0F13001092914D80AEB8A0102EB03
:1050C000410144F0020400EB010A6D1CF0E701CF3E
:1050D0005FEA000A03D544F40054CAF1000A44F020
:1050E00002046D1C28782E2817D115F8010F44F002
:1050F00004042A280ED06FF02F022878A0F1300186
:1051000009290AD809EB890102EB410100EB0109E9
:105110006D1CF2E757F8049B6D1C28786C280FD0A3
:1051200006DC4C2817D068280DD06A2814D104E07A
:10513000742810D07A280FD10DE044F400140AE04E
:1051400044F4801401E044F440146978814202D1AF
:1051500004F580146D1C6D1C2A786E2A1FD00CDC9F
:10516000632A31D004DC002A8BD0582A11D1A3E065
:10517000642A68D0692A0CD165E0732A2ED004DC39
:105180006F2A73D0702A04D19BE0752A6FD0782AD9
:105190006ED01046DDE90F129047761C50E1C4F343
:1051A0000250022806D0032809D0042801CF09D0D4
:1051B000066045E101CFF117C0E9006140E101CF90
:1051C00006803DE106703BE117F8040B8DF8000006
:1051D00000208DF80100EB46012003E057F804BBE6
:1051E0004FF0FF3061074FF0000102D40DE008F1ED
:1051F0000101884649450FDA8045F8DB1BF80810A5
:105200000029F4D108E008F1010188468142FADB67
:105210001BF808100029F6D1DDE90F23AAEB0800DE
:105220008146214600F036F9304400EB080604E0E0
:10523000DDE90F121BF8010B9047B8F10108F7D216
:1052400021464846F7E00A21C4F302534FF0000B11
:105250000891022B04D001CFC117032B09D00AE01B
:10526000FF1D27F00707F7E8020108E032E01FE022
:1052700020E000B2C117042B01D140B2C117031EB8
:1052800071F1000307DA4FF0000CD0EB0C006CEB6F
:1052900001012D2302E0230504D52B238DF82430B2
:1052A000012303E0E30701D02023F7E7984658E005
:1052B0000A2110E010210EE010204FF0000B0890A2
:1052C0000CE010214FF0000B44F004044FF00809EB
:1052D000089103E008214FF0000B0891C4F302533A
:1052E000022B04D001CF0021032B06D006E0FF1DC6
:1052F00027F00707F7E8020103E080B2042B00D192
:10530000C0B24FF0000823072BD5702A07D0DDF874
:1053100020C08CF0100C5CEA0B0C05D00EE0402392
:105320008DF82430012308E050EA010306D0302331
:105330008DF824308DF8252002239846DDF820C012
:105340008CF0080C5CEA0B0C0BD150EA010301D184
:10535000630706D530238DF824304FF00108A9F1FA
:105360000109582A04D038A20B9208AA0A920BE02D
:105370003AA2F9E75B46089AFCF72AFF0B9B9B5C75
:105380000A9A521E0A92137050EA0102F2D10A9848
:10539000ADEB000000F1200B600702D524F480344F
:1053A00001E04FF00109D94502DDA9EB0B0000E057
:1053B000002000EB0B0141440890AAEB010AE00336
:1053C00006D4DDE90F232146504600F063F8064479
:1053D0004FF0000908E009A911F80900DDE90F12F2
:1053E000904709F10109761CC145F4DBE0030CD5B7
:1053F000DDE90F232146504600F04CF8064404E056
:10540000DDE90F1230209047761C0899481E08905D
:105410000029F5DC08E00A980A990078491C0A91ED
:10542000DDE90F129047761CBBF10001ABF1010BD7
:10543000F1DC21465046DDE90F2300F019F806445F
:105440006D1C1BE609280100303132333435363704
:1054500038396162636465660000000030313233C0
:105460003435363738394142434445460000000060
:105470002DE9F041044600251E461746880404D451
:1054800005E039462020B0476D1C641EF9D528463A
:10549000BDE8F0812DE9F041044600251E46904606
:1054A000C80301D5302700E02027880404D505E093
:1054B00041463846B0476D1C641EF9D52846BDE804
:1054C000F0810A68531C0B60107070470149C86076
:1054D00070470000002002400248016941F080014D
:1054E000016170470020024070B505464FF47026F8
:1054F000304600F017F8002810D1094C206940F020
:10550000020020616561206940F040002061304662
:1055100000F008F8216921F00201216170BD00004E
:105520000020024000B5034600F008F85B1E012889
:1055300002D1002BF8D1042000BD00000849002052
:10554000CA68D20701D001207047CA68D20601D5C7
:1055500003207047C9684907FBD502207047000047
:105560000020024004480169090603D5034941604F
:105570000349416070470000002002402301674555
:10558000AB89EFCDF0B506464FF470270D4638468F
:10559000FFF7C8FF00280CD1064C206940F001003D
:1055A000206135603846FFF7BDFF216921F0010118
:1055B0002161F0BD0020024070B50446FDF777FF81
:1055C000124890F82400A52810D0114D68880026B4
:1055D000FF2817D868880F490144401C68800C7068
:1055E0000A2C07D00D2C05D024B109E0E0B2FFF75A
:1055F000B3FC05E06A8807490020FFF787FC6E804E
:10560000204670BD4FF48072F5E70000940500203D
:1056100040000020E007002030B5124D104B45F24D
:1056200055541A462C60EC68521E04F0010402D056
:10563000002CF8D100E04CB96960E9685B1E01F00C
:10564000020102D00029F8D102E009B1002030BDEA
:10565000C0F30B00A8604AF6AA202860012030BDE4
:10566000FFFF0F000030004002494AF6AA20086000
:10567000704700000030004002494CF6CC40086002
:105680007047000000300040F0B5046A456A00230E
:105690004FF0010C4FF00F0E0CFA03F6164206D035
:1056A0009E000EFA06F7BC4301FA06F73C435B1C6A
:1056B0009BB2082BF0D308230CFA03F6164207D04E
:1056C0009E00203E0EFA06F7BD4301FA06F73D4361
:1056D0005B1C9BB2102BEFD304624562F0BD81626C
:1056E0007047816170470069084000D00120704711
:1056F0002DE9F0470568C66800244FF0010A4FF015
:1057000003090AFA04F71F420ED0670009FA07FCE2
:1057100025EA0C0526EA0C0601FA07F802FA07FC4E
:1057200048EA05054CEA0606641CA4B2102CE8D32E
:105730000560C660BDE8F087F0B50129416830D04A
:1057400099434160846801260327A2F57F41FF3910
:1057500013D0002106FA01F51D4208D04D0007FACA
:1057600005FC24EA0C0402FA05FC4CEA0404491C7A
:1057700089B21029EED38460F0BDC26B002106FA15
:1057800001F51D4206D04FEA410C07FA0CFC4CEA29
:1057900004042A43491C89B21029F0D38460C263EF
:1057A000F0BD1943CDE7000008B5FDF745FF814680
:1057B000C8464646B24605465746FDF73DFF4FF4FC
:1057C0000051880300F0DEF84FF4407000F0D0F88C
:1057D000FDF748F9DFF8E4B0FDF769FEFDF72CFFAF
:1057E000044606F5FA71A14201D9A64202D906463D
:1057F000FEF7B0FAFDF720FF41F288320AEB020112
:10580000884203D2FDF718FF504512D2FDF714FF6E
:105810008246FDF717FFFDF70FFF4FF47A71B0FBDB
:10582000F1F127485523274A0068009026A0FFF78A
:10583000E3FB05F5FA60A04201D9A54204D925464B
:10584000FEF788F8FDF733FE9BF81600A52811D166
:10585000FDF72DFE002141F2883038448BF81610F8
:10586000A04201D9A74205D927461A20FEF7E6F93A
:10587000FEF79CFC9BF82300A5280CD041F2883150
:1058800008EB0100A04201D9A04504D9FDF70FFEA5
:10589000A046FDF795F8FDF7CFFBFDF7B3FA4EF6FE
:1058A000602109EB0100A04201D9A14594D9FDF77F
:1058B000FEFDA146FDF74AF88EE7000094050020A2
:1058C00080000020F25F00085B5538732025645D7E
:1058D0002025733A2825642953797374656D436FC5
:1058E0007265436C6F636B5B25645D0A00000000AA
:1058F00030B51E4D002423462D6805F4E065B5F54E
:10590000A06F12D006DCB5F5407F14D0B5F5806FDE
:1059100012D10DE0B5F5C06F04D0B5F5E06F0BD135
:10592000042309E00124032306E00224234603E0C4
:105930000324012300E00424C4F10404A140C3F1C2
:1059400004040F23E34013400B4300F1E02219014C
:1059500082F8001400F01F020121914040098000EC
:1059600000F1E020C0F8001130BD00000CED00E0B7
:105970000249084302490860704700000000FA0528
:105980000CED00E0024A11400143024801607047FB
:1059900080FFFF1F08ED00E00248416A41F080717E
:1059A00041627047001002402DE9F04760A288B0C4
:1059B00074CA8DE874005FA2614ED2E90042CDE95D
:1059C00004425CA28046D2E90042CDE906420020B2
:1059D0007268014603465B4DC2F381021AB1012A87
:1059E00001D0022A01D02A4623E072687468C2F30B
:1059F0008342C4F3C067F46AE40F0FB1113200E0D0
:105A0000921C04B11F327468F76AC4F30044C7F3F0
:105A1000807764B1F46A04F00F04641C27B14A4F24
:105A2000B7FBF4F4624304E0B5FBF4F4FAE7474C47
:105A300062437468C4F303141DF8047022FA07F477
:105A400077680DF1100CC7F302271CF8077024FAD1
:105A500007F977680DF1180CC7F3C2274FF4004A15
:105A60001CF8077024FA07F7B8F1070F06D2DFE831
:105A700008F004080A0C0E3C4400104608B0BDE8CB
:105A8000F0872046FAE74846F8E73846F6E7306BF5
:105A9000C00506D4306BC00301D42D4923E02D4945
:105AA00021E07068C0F38132306BC00F32B1012A3F
:105AB00009D0022A0ED0032A15D110E008B1032024
:105AC00003E079080FE018B10520B7FBF0F10AE018
:105AD000B90808E008B10720F7E70620F5E708B1A4
:105AE0000920F2E7F9080846C8E7306B400602D4FF
:105AF00048F21200C2E75046C0E7306B80070ED074
:105B0000306B00F0030001280BD0306B00F0030075
:105B1000022808D0306BC043800706D006E03B4621
:105B200004E0134602E0534600E02B461846A5E782
:105B3000000000000000000001020304060708093D
:105B40000010024000127A00006CDC0200093D00E7
:105B5000809FD500003FAB01064A02EB9011096817
:105B600000F01F0201209040014201D00120704747
:105B70000020704700100240054901EB90110A68AF
:105B800000F01F030120984002430A6070470000A4
:105B90000010024070B500234FF40066334D1C46E0
:105BA000B0421BD005DC30B310280ED018285AD1D3
:105BB0004DE0B0F5106F3FD0B0F5506F26D000F536
:105BC0007F60B0F5804F4ED12BE01120FFF7C4FF6E
:105BD0005B1C08B9B342F8D1112040E040F6010641
:105BE0006FF07C453046FFF7B7FF5B1C08B9AB424E
:105BF000F8D1304633E04FF4A0650120FFF7ACFF49
:105C00005B1C08B9AB42F8D1012028E040F60156F0
:105C10003046FFF7A1FF5B1C0028EAD1AB42F7D169
:105C2000E7E743F211063046FFF796FF5B1C0028BA
:105C3000DFD1AB42F7D1DCE740F601163046FFF783
:105C40008BFF5B1C0028D4D1AB42F7D1D1E71920E0
:105C5000FFF782FF5B1C08B9AB42F8D11920FFF7B0
:105C60007BFF00B10124204670BD0000FFFF0F0044
:105C7000054901EB90110A6800F01F0301209840CC
:105C800002430A607047000000100240054901EB22
:105C900090110A6800F01F030120984082430A60B7
:105CA0007047000000100240054901EB90110A689E
:105CB00000F01F030120984002430A607047000073
:105CC000001002401E480021026842F48032026047
:105CD000C3140268491C12F4003F01D19942F8D163
:105CE000016889032BD541684160416841F4005146
:105CF0004160416841F4806141604168114A11404E
:105D00004160C16A21F04041C162C16A41F00101B4
:105D1000C16241680C4A11434160016841F08071E1
:105D2000016001688901FCD5416821F003014160EF
:105D3000416841F00201416041680907FCD57047A4
:105D400000100240FFFFC277000011084FF0E02171
:105D50000428086903D020F004000861704740F06F
:105D60000400FAE7016841F080010160704700001B
:105D70001A4A10B5811A4FF4E05390421DD00ADC44
:105D8000B0F1804F1CD0164940181CD0984223D146
:105D90004FF4816409E0B1F5A05F17D0B1F5C05FA1
:105DA00017D0994218D140F212342046FFF77CFFF9
:105DB0002046BDE81040FFF769BF40F20B34F4E71E
:105DC0004FF48064F1E740F20144EEE74FF444748D
:105DD000EBE740F21134E8E710BD0000002C014071
:105DE00000FCFFBF016821F00101016070470168FC
:105DF00041F001010160704702698A430261704706
:105E0000F0B50A888262204A204B4FF080479042CA
:105E100003D0B84201D098420BD1046824F070043A
:105E2000046004684D882C43046004688D882C430A
:105E300004608C68C462164C164D174E90420CD00C
:105E4000B8420AD0984208D0144B984205D0A042DC
:105E500003D0A84201D0B04207D1036823F44073B5
:105E6000036003688F893B430360904205D0A042E2
:105E700003D0A84201D0B04201D1897B01634169BE
:105E800041F001014161F0BD002C014000040040DF
:105E90000040014000440140004801400020004013
:105EA000C2680A43C260704702698A430261704750
:105EB000C26800690A40084202D00AB10120704756
:105EC0000020704770B50D46044613490020611844
:105ED00004D0B1F5744F04D1062000E00220FFF792
:105EE00063FD21680A044FF6F07108D5400000EB0D
:105EF0005500B0FBF5F0014000F0070206E000EBB2
:105F00005500B0FBF5F0014000F00F02E0681143CE
:105F10000843E06070BD000000BCFFBF406AC0F3F2
:105F200008007047C1F30801816270470A4910B543
:105F3000401805D0B0F5744F0CD140F20E3401E09A
:105F400040F211442046FFF7AFFE2046BDE8104066
:105F5000FFF79CBE10BD000000BCFFBF016841F010
:105F600001010160704700EB9110006801F01F0211
:105F700001219140084000D00120704710B5C1F3C5
:105F80008912835801F01F040121A1400B43835063
:105F900010BD026AC1F30443012199400A43026221
:105FA000704730B5C1F38912825800EB915001F06F
:105FB0001F05012404FA05F300681A40C1F30441E7
:105FC00004FA01F3184202D00AB1012030BD0020CA
:105FD00030BD026822F00402026002680A430260D7
:105FE0007047026822F00802026002680A430260F9
:105FF00070476D61696E00436865636B5F4D315F2B
:1060000043617264004465627567526563765072DD
:106010006F6300557067726164655F57726974657C
:1060200000434F4D5F557067726164655F577269D9
:10603000746500557067726164655265717565734A
:106040007448616E646C65720053656E6455706768
:10605000726164655061636B616765004D61696E73
:10606000426F6172645570677261646500436F6D61
:10607000526563764D61696E426F6172644461740A
:106080006100466C6173685772697465576F72641A
:1060900000466C6173685772697465005379737454
:1060A000656D52657365745265636F7264005072FA
:1060B000696E74664461746100464D3137355858D5
:1060C0005F436F6E66696700A56363C6847C7CF876
:1060D000997777EE8D7B7BF60DF2F2FFBD6B6BD679
:1060E000B16F6FDE54C5C5915030306003010102BD
:1060F000A96767CE7D2B2B5619FEFEE762D7D7B571
:10610000E6ABAB4D9A7676EC45CACA8F9D82821F6C
:1061100040C9C989877D7DFA15FAFAEFEB5959B262
:10612000C947478E0BF0F0FBECADAD4167D4D4B35B
:10613000FDA2A25FEAAFAF45BF9C9C23F7A4A45386
:10614000967272E45BC0C09BC2B7B7751CFDFDE1DF
:10615000AE93933D6A26264C5A36366C413F3F7EBD
:1061600002F7F7F54FCCCC835C343468F4A5A55125
:1061700034E5E5D108F1F1F9937171E273D8D8AB48
:10618000533131623F15152A0C04040852C7C795D4
:10619000652323465EC3C39D28181830A196963701
:1061A0000F05050AB59A9A2F0907070E3612122411
:1061B0009B80801B3DE2E2DF26EBEBCD6927274E7B
:1061C000CDB2B27F9F7575EA1B0909129E83831DAC
:1061D000742C2C582E1A1A342D1B1B36B26E6EDC02
:1061E000EE5A5AB4FBA0A05BF65252A44D3B3B764C
:1061F00061D6D6B7CEB3B37D7B2929523EE3E3DD2A
:10620000712F2F5E97848413F55353A668D1D1B9AB
:10621000000000002CEDEDC1602020401FFCFCE3DD
:10622000C8B1B179ED5B5BB6BE6A6AD446CBCB8DA3
:10623000D9BEBE674B393972DE4A4A94D44C4C9869
:10624000E85858B04ACFCF856BD0D0BB2AEFEFC506
:10625000E5AAAA4F16FBFBEDC5434386D74D4D9AE1
:106260005533336694858511CF45458A10F9F9E990
:1062700006020204817F7FFEF05050A0443C3C782F
:10628000BA9F9F25E3A8A84BF35151A2FEA3A35D9B
:10629000C04040808A8F8F05AD92923FBC9D9D216A
:1062A0004838387004F5F5F1DFBCBC63C1B6B67789
:1062B00075DADAAF63212142301010201AFFFFE5B2
:1062C0000EF3F3FD6DD2D2BF4CCDCD81140C0C1862
:1062D000351313262FECECC3E15F5FBEA297973511
:1062E000CC4444883917172E57C4C493F2A7A75536
:1062F000827E7EFC473D3D7AAC6464C8E75D5DBA52
:106300002B191932957373E6A06060C098818119CA
:10631000D14F4F9E7FDCDCA3662222447E2A2A5482
:10632000AB90903B8388880BCA46468C29EEEEC71B
:10633000D3B8B86B3C14142879DEDEA7E25E5EBCED
:106340001D0B0B1676DBDBAD3BE0E0DB5632326437
:106350004E3A3A741E0A0A14DB4949920A06060CA0
:106360006C242448E45C5CB85DC2C29F6ED3D3BD8C
:10637000EFACAC43A66262C4A8919139A495953163
:1063800037E4E4D38B7979F232E7E7D543C8C88B99
:106390005937376EB76D6DDA8C8D8D0164D5D5B1F7
:1063A000D24E4E9CE0A9A949B46C6CD8FA5656ACB2
:1063B00007F4F4F325EAEACFAF6565CA8E7A7AF47A
:1063C000E9AEAE4718080810D5BABA6F887878F0E9
:1063D0006F25254A722E2E5C241C1C38F1A6A65768
:1063E000C7B4B47351C6C69723E8E8CB7CDDDDA102
:1063F0009C7474E8211F1F3EDD4B4B96DCBDBD61D4
:10640000868B8B0D858A8A0F907070E0423E3E7CB1
:10641000C4B5B571AA6666CCD84848900503030692
:1064200001F6F6F7120E0E1CA36161C25F35356AE4
:10643000F95757AED0B9B9699186861758C1C19935
:10644000271D1D3AB99E9E2738E1E1D913F8F8EBD4
:10645000B398982B33111122BB6969D270D9D9A98D
:10646000898E8E07A7949433B69B9B2D221E1E3CCB
:106470009287871520E9E9C949CECE87FF5555AAED
:10648000782828507ADFDFA58F8C8C03F8A1A159DA
:1064900080898909170D0D1ADABFBF6531E6E6D785
:1064A000C6424284B86868D0C3414182B0999929F4
:1064B000772D2D5A110F0F1ECBB0B07BFC5454A872
:1064C000D6BBBB6D3A16162C6363C6A57C7CF884DC
:1064D0007777EE997B7BF68DF2F2FF0D6B6BD6BD75
:1064E0006F6FDEB1C5C591543030605001010203B9
:1064F0006767CEA92B2B567DFEFEE719D7D7B5626D
:10650000ABAB4DE67676EC9ACACA8F4582821F9D68
:10651000C9C989407D7DFA87FAFAEF155959B2EB5E
:1065200047478EC9F0F0FB0BADAD41ECD4D4B36757
:10653000A2A25FFDAFAF45EA9C9C23BFA4A453F782
:106540007272E496C0C09B5BB7B775C2FDFDE11CDB
:1065500093933DAE26264C6A36366C5A3F3F7E41B9
:10656000F7F7F502CCCC834F3434685CA5A551F421
:10657000E5E5D134F1F1F9087171E293D8D8AB7344
:106580003131625315152A3F0404080CC7C79552D0
:1065900023234665C3C39D5E18183028969637A1FD
:1065A00005050A0F9A9A2FB507070E09121224360D
:1065B00080801B9BE2E2DF3DEBEBCD2627274E6977
:1065C000B2B27FCD7575EA9F0909121B83831D9EA8
:1065D0002C2C58741A1A342E1B1B362D6E6EDCB2FE
:1065E0005A5AB4EEA0A05BFB5252A4F63B3B764D48
:1065F000D6D6B761B3B37DCE2929527BE3E3DD3E26
:106600002F2F5E71848413975353A6F5D1D1B968A7
:1066100000000000EDEDC12C20204060FCFCE31FD9
:10662000B1B179C85B5BB6ED6A6AD4BECBCB8D469F
:10663000BEBE67D93939724B4A4A94DE4C4C98D465
:106640005858B0E8CFCF854AD0D0BB6BEFEFC52A02
:10665000AAAA4FE5FBFBED16434386C54D4D9AD7DD
:10666000333366558585119445458ACFF9F9E9108C
:10667000020204067F7FFE815050A0F03C3C78442B
:106680009F9F25BAA8A84BE35151A2F3A3A35DFE97
:10669000404080C08F8F058A92923FAD9D9D21BC66
:1066A00038387048F5F5F104BCBC63DFB6B677C185
:1066B000DADAAF752121426310102030FFFFE51AAE
:1066C000F3F3FD0ED2D2BF6DCDCD814C0C0C18145E
:1066D00013132635ECECC32F5F5FBEE1979735A20D
:1066E000444488CC17172E39C4C49357A7A755F232
:1066F0007E7EFC823D3D7A476464C8AC5D5DBAE74E
:106700001919322B7373E6956060C0A081811998C6
:106710004F4F9ED1DCDCA37F222244662A2A547E7E
:1067200090903BAB88880B8346468CCAEEEEC72917
:10673000B8B86BD31414283CDEDEA7795E5EBCE2E9
:106740000B0B161DDBDBAD76E0E0DB3B3232645633
:106750003A3A744E0A0A141E494992DB06060C0A9C
:106760002424486C5C5CB8E4C2C29F5DD3D3BD6E88
:10677000ACAC43EF6262C4A6919139A8959531A45F
:10678000E4E4D3377979F28BE7E7D532C8C88B4395
:1067900037376E596D6DDAB78D8D018CD5D5B164F3
:1067A0004E4E9CD2A9A949E06C6CD8B45656ACFAAE
:1067B000F4F4F307EAEACF256565CAAF7A7AF48E76
:1067C000AEAE47E908081018BABA6FD57878F088E5
:1067D00025254A6F2E2E5C721C1C3824A6A657F164
:1067E000B4B473C7C6C69751E8E8CB23DDDDA17CFE
:1067F0007474E89C1F1F3E214B4B96DDBDBD61DCD0
:106800008B8B0D868A8A0F857070E0903E3E7C42AD
:10681000B5B571C46666CCAA484890D8030306058E
:10682000F6F6F7010E0E1C126161C2A335356A5FE0
:106830005757AEF9B9B969D086861791C1C1995831
:106840001D1D3A279E9E27B9E1E1D938F8F8EB13D0
:1068500098982BB3111122336969D2BBD9D9A97089
:106860008E8E0789949433A79B9B2DB61E1E3C22C7
:1068700087871592E9E9C920CECE87495555AAFFE9
:1068800028285078DFDFA57A8C8C038FA1A159F8D6
:10689000898909800D0D1A17BFBF65DAE6E6D73181
:1068A000424284C66868D0B8414182C3999929B0F0
:1068B0002D2D5A770F0F1E11B0B07BCB5454A8FC6E
:1068C000BBBB6DD616162C3A63C6A5637CF8847CD8
:1068D00077EE99777BF68D7BF2FF0DF26BD6BD6B71
:1068E0006FDEB16FC59154C53060503001020301B5
:1068F00067CEA9672B567D2BFEE719FED7B562D769
:10690000AB4DE6AB76EC9A76CA8F45CA821F9D8264
:10691000C98940C97DFA877DFAEF15FA59B2EB595A
:10692000478EC947F0FB0BF0AD41ECADD4B367D453
:10693000A25FFDA2AF45EAAF9C23BF9CA453F7A47E
:1069400072E49672C09B5BC0B775C2B7FDE11CFDD7
:10695000933DAE93264C6A26366C5A363F7E413FB5
:10696000F7F502F7CC834FCC34685C34A551F4A51D
:10697000E5D134E5F1F908F171E29371D8AB73D840
:1069800031625331152A3F1504080C04C79552C7CC
:1069900023466523C39D5EC3183028189637A196F9
:1069A000050A0F059A2FB59A070E09071224361209
:1069B000801B9B80E2DF3DE2EBCD26EB274E692773
:1069C000B27FCDB275EA9F7509121B09831D9E83A4
:1069D0002C58742C1A342E1A1B362D1B6EDCB26EFA
:1069E0005AB4EE5AA05BFBA052A4F6523B764D3B44
:1069F000D6B761D6B37DCEB329527B29E3DD3EE322
:106A00002F5E712F8413978453A6F553D1B968D1A3
:106A100000000000EDC12CED20406020FCE31FFCD5
:106A2000B179C8B15BB6ED5B6AD4BE6ACB8D46CB9B
:106A3000BE67D9BE39724B394A94DE4A4C98D44C61
:106A400058B0E858CF854ACFD0BB6BD0EFC52AEFFE
:106A5000AA4FE5AAFBED16FB4386C5434D9AD74DD9
:106A60003366553385119485458ACF45F9E910F988
:106A7000020406027FFE817F50A0F0503C78443C27
:106A80009F25BA9FA84BE3A851A2F351A35DFEA393
:106A90004080C0408F058A8F923FAD929D21BC9D62
:106AA00038704838F5F104F5BC63DFBCB677C1B681
:106AB000DAAF75DA2142632110203010FFE51AFFAA
:106AC000F3FD0EF3D2BF6DD2CD814CCD0C18140C5A
:106AD00013263513ECC32FEC5FBEE15F9735A29709
:106AE0004488CC44172E3917C49357C4A755F2A72E
:106AF0007EFC827E3D7A473D64C8AC645DBAE75D4A
:106B000019322B1973E6957360C0A06081199881C2
:106B10004F9ED14FDCA37FDC224466222A547E2A7A
:106B2000903BAB90880B8388468CCA46EEC729EE13
:106B3000B86BD3B814283C14DEA779DE5EBCE25EE5
:106B40000B161D0BDBAD76DBE0DB3BE0326456322F
:106B50003A744E3A0A141E0A4992DB49060C0A0698
:106B600024486C245CB8E45CC29F5DC2D3BD6ED384
:106B7000AC43EFAC62C4A6629139A8919531A4955B
:106B8000E4D337E479F28B79E7D532E7C88B43C891
:106B9000376E59376DDAB76D8D018C8DD5B164D5EF
:106BA0004E9CD24EA949E0A96CD8B46C56ACFA56AA
:106BB000F4F307F4EACF25EA65CAAF657AF48E7A72
:106BC000AE47E9AE08101808BA6FD5BA78F08878E1
:106BD000254A6F252E5C722E1C38241CA657F1A660
:106BE000B473C7B4C69751C6E8CB23E8DDA17CDDFA
:106BF00074E89C741F3E211F4B96DD4BBD61DCBDCC
:106C00008B0D868B8A0F858A70E090703E7C423EA9
:106C1000B571C4B566CCAA664890D848030605038A
:106C2000F6F701F60E1C120E61C2A361356A5F35DC
:106C300057AEF957B969D0B986179186C19958C12D
:106C40001D3A271D9E27B99EE1D938E1F8EB13F8CC
:106C5000982BB3981122331169D2BB69D9A970D985
:106C60008E07898E9433A7949B2DB69B1E3C221EC3
:106C700087159287E9C920E9CE8749CE55AAFF55E5
:106C800028507828DFA57ADF8C038F8CA159F8A1D2
:106C9000890980890D1A170DBF65DABFE6D731E67D
:106CA0004284C64268D0B8684182C3419929B099EC
:106CB0002D5A772D0F1E110FB07BCBB054A8FC546A
:106CC000BB6DD6BB162C3A16C6A56363F8847C7CD4
:106CD000EE997777F68D7B7BFF0DF2F2D6BD6B6B6D
:106CE000DEB16F6F9154C5C56050303002030101B1
:106CF000CEA96767567D2B2BE719FEFEB562D7D765
:106D00004DE6ABABEC9A76768F45CACA1F9D828260
:106D10008940C9C9FA877D7DEF15FAFAB2EB595956
:106D20008EC94747FB0BF0F041ECADADB367D4D44F
:106D30005FFDA2A245EAAFAF23BF9C9C53F7A4A47A
:106D4000E49672729B5BC0C075C2B7B7E11CFDFDD3
:106D50003DAE93934C6A26266C5A36367E413F3FB1
:106D6000F502F7F7834FCCCC685C343451F4A5A519
:106D7000D134E5E5F908F1F1E2937171AB73D8D83C
:106D8000625331312A3F1515080C04049552C7C7C8
:106D9000466523239D5EC3C33028181837A19696F5
:106DA0000A0F05052FB59A9A0E0907072436121205
:106DB0001B9B8080DF3DE2E2CD26EBEB4E6927276F
:106DC0007FCDB2B2EA9F7575121B09091D9E8383A0
:106DD00058742C2C342E1A1A362D1B1BDCB26E6EF6
:106DE000B4EE5A5A5BFBA0A0A4F65252764D3B3B40
:106DF000B761D6D67DCEB3B3527B2929DD3EE3E31E
:106E00005E712F2F13978484A6F55353B968D1D19F
:106E100000000000C12CEDED40602020E31FFCFCD1
:106E200079C8B1B1B6ED5B5BD4BE6A6A8D46CBCB97
:106E300067D9BEBE724B393994DE4A4A98D44C4C5D
:106E4000B0E85858854ACFCFBB6BD0D0C52AEFEFFA
:106E50004FE5AAAAED16FBFB86C543439AD74D4DD5
:106E600066553333119485858ACF4545E910F9F984
:106E700004060202FE817F7FA0F0505078443C3C23
:106E800025BA9F9F4BE3A8A8A2F351515DFEA3A38F
:106E900080C04040058A8F8F3FAD929221BC9D9D5E
:106EA00070483838F104F5F563DFBCBC77C1B6B67D
:106EB000AF75DADA4263212120301010E51AFFFFA6
:106EC000FD0EF3F3BF6DD2D2814CCDCD18140C0C56
:106ED00026351313C32FECECBEE15F5F35A2979705
:106EE00088CC44442E3917179357C4C455F2A7A72A
:106EF000FC827E7E7A473D3DC8AC6464BAE75D5D46
:106F0000322B1919E6957373C0A0606019988181BE
:106F10009ED14F4FA37FDCDC44662222547E2A2A76
:106F20003BAB90900B8388888CCA4646C729EEEE0F
:106F30006BD3B8B8283C1414A779DEDEBCE25E5EE1
:106F4000161D0B0BAD76DBDBDB3BE0E0645632322B
:106F5000744E3A3A141E0A0A92DB49490C0A060694
:106F6000486C2424B8E45C5C9F5DC2C2BD6ED3D380
:106F700043EFACACC4A6626239A8919131A4959557
:106F8000D337E4E4F28B7979D532E7E78B43C8C88D
:106F90006E593737DAB76D6D018C8D8DB164D5D5EB
:106FA0009CD24E4E49E0A9A9D8B46C6CACFA5656A6
:106FB000F307F4F4CF25EAEACAAF6565F48E7A7A6E
:106FC00047E9AEAE101808086FD5BABAF0887878DD
:106FD0004A6F25255C722E2E38241C1C57F1A6A65C
:106FE00073C7B4B49751C6C6CB23E8E8A17CDDDDF6
:106FF000E89C74743E211F1F96DD4B4B61DCBDBDC8
:107000000D868B8B0F858A8AE09070707C423E3EA5
:1070100071C4B5B5CCAA666690D848480605030386
:10702000F701F6F61C120E0EC2A361616A5F3535D8
:10703000AEF9575769D0B9B9179186869958C1C129
:107040003A271D1D27B99E9ED938E1E1EB13F8F8C8
:107050002BB3989822331111D2BB6969A970D9D981
:1070600007898E8E33A794942DB69B9B3C221E1EBF
:1070700015928787C920E9E98749CECEAAFF5555E1
:1070800050782828A57ADFDF038F8C8C59F8A1A1CE
:10709000098089891A170D0D65DABFBFD731E6E679
:1070A00084C64242D0B8686882C3414129B09999E8
:1070B0005A772D2D1E110F0F7BCBB0B0A8FC545466
:1070C0006DD6BBBB2C3A161650A7F4515365417EC2
:1070D000C3A4171A965E273ACB6BAB3BF1459D1FB5
:1070E000AB58FAAC9303E34B55FA3020F66D76AD0E
:1070F0009176CC88254C02F5FCD7E54FD7CB2AC535
:10710000804435268FA362B5495AB1DE671BBA2584
:10711000980EEA45E1C0FE5D02752FC312F04C8166
:10712000A397468DC6F9D36BE75F8F03959C9215A5
:10713000EB7A6DBFDA5952952D83BED4D3217458A2
:107140002969E04944C8C98E6A89C27578798EF484
:107150006B3E5899DD71B927B64FE1BE17AD88F087
:1071600066AC20C9B43ACE7D184ADF6382311AE595
:1071700060335197457F5362E07764B184AE6BBB57
:107180001CA081FE942B08F95868487019FD458FA2
:10719000876CDE94B7F87B5223D373ABE2024B7259
:1071A000578F1FE32AAB55660728EBB203C2B52FF2
:1071B0009A7BC586A50837D3F2872830B2A5BF23AE
:1071C000BA6A03025C8216ED2B1CCF8A92B479A7AF
:1071D000F0F207F3A1E2694ECDF4DA65D5BE0506FB
:1071E0001F6234D18AFEA6C49D532E34A055F3A24B
:1071F00032E18A0575EBF6A439EC830BAAEF604007
:10720000069F715E51106EBDF98A213E3D06DD96E6
:10721000AE053EDD46BDE64DB58D5491055DC471AC
:107220006FD40604FF15506024FB981997E9BDD66A
:10723000CC434089779ED967BD42E8B0888B8907E7
:10724000385B19E7DBEEC879470A7CA1E90F427C7D
:10725000C91E84F8000000008386800948ED2B32A7
:10726000AC70111E4E725A6CFBFF0EFD5638850F26
:107270001ED5AE3D27392D3664D90F0A21A65C688C
:10728000D1545B9B3A2E3624B1670A0C0FE7579313
:10729000D296EEB49E919B1B4FC5C080A220DC61AC
:1072A000694B775A161A121C0ABA93E2E52AA0C053
:1072B00043E0223C1D171B120B0D090EADC78BF2CC
:1072C000B9A8B62DC8A91E148519F1574C0775AF7A
:1072D000BBDD99EEFD607FA39F2601F7BCF5725CD4
:1072E000C53B6644347EFB5B7629438BDCC623CBEF
:1072F00068FCEDB663F1E4B8CADC31D710856342AF
:10730000402297132011C6847D244A85F83DBBD2C4
:107310001132F9AE6DA129C74B2F9E1DF330B2DC9F
:10732000EC52860DD0E3C1776C16B32B99B970A9D6
:10733000FA4894112264E947C48CFCA81A3FF0A0D3
:10734000D82C7D56EF903322C74E4987C1D138D90A
:10735000FEA2CA8C360BD498CF81F5A628DE7AA57A
:10736000268EB7DAA4BFAD3FE49D3A2C0D9278503B
:107370009BCC5F6A62467E54C2138DF6E8B8D89003
:107380005EF7392EF5AFC382BE805D9F7C93D069D6
:10739000A92DD56FB31225CF3B99ACC8A77D181086
:1073A0006E639CE87BBB3BDB097826CDF418596EF5
:1073B00001B79AECA89A4F83656E95E67EE6FFAA20
:1073C00008CFBC21E6E815EFD99BE7BACE366F4A65
:1073D000D4099FEAD67CB029AFB2A43131233F2A29
:1073E0003094A5C6C066A23537BC4E74A6CA82FCCE
:1073F000B0D090E015D8A7334A9804F1F7DAEC4101
:107400000E50CD7F2FF691178DD64D764DB0EF43B0
:10741000544DAACCDF0496E4E3B5D19E1B886A4C98
:10742000B81F2CC17F51654604EA5E9D5D358C0115
:10743000737487FA2E410BFB5A1D67B352D2DB924D
:10744000335610E91347D66D8C61D79A7A0CA13761
:107450008E14F859893C13EBEE27A9CE35C961B7D4
:10746000EDE51CE13CB1477A59DFD29C3F73F25500
:1074700079CE1418BF37C773EACDF7535BAAFD5F07
:10748000146F3DDF86DB447881F3AFCA3EC468B930
:107490002C3424385F40A3C272C31D160C25E2BCF5
:1074A0008B493C2841950DFF7101A839DEB30C08CA
:1074B0009CE4B4D890C156646184CB7B70B632D55D
:1074C000745C6C484257B8D0A7F4515065417E5364
:1074D000A4171AC35E273A966BAB3BCB459D1FF1B1
:1074E00058FAACAB03E34B93FA3020556D76ADF60A
:1074F00076CC88914C02F525D7E54FFCCB2AC5D731
:1075000044352680A362B58F5AB1DE491BBA256780
:107510000EEA4598C0FE5DE1752FC302F04C811262
:1075200097468DA3F9D36BC65F8F03E79C921595A1
:107530007A6DBFEB595295DA83BED42D217458D39E
:1075400069E04929C8C98E4489C2756A798EF47880
:107550003E58996B71B927DD4FE1BEB6AD88F01783
:10756000AC20C9663ACE7DB44ADF6318311AE58291
:10757000335197607F5362457764B1E0AE6BBB8453
:10758000A081FE1C2B08F99468487058FD458F199E
:107590006CDE9487F87B52B7D373AB23024B72E255
:1075A0008F1FE357AB55662A28EBB207C2B52F03EE
:1075B0007BC5869A0837D3A5872830F2A5BF23B2AA
:1075C0006A0302BA8216ED5C1CCF8A2BB479A792AB
:1075D000F207F3F0E2694EA1F4DA65CDBE0506D5F7
:1075E0006234D11FFEA6C48A532E349D55F3A2A047
:1075F000E18A0532EBF6A475EC830B39EF6040AA03
:107600009F715E06106EBD518A213EF906DD963DE2
:10761000053EDDAEBDE64D468D5491B55DC47105A8
:10762000D406046F155060FFFB981924E9BDD69766
:10763000434089CC9ED9677742E8B0BD8B890788E3
:107640005B19E738EEC879DB0A7CA1470F427CE979
:107650001E84F8C90000000086800983ED2B3248A3
:1076600070111EAC725A6C4EFF0EFDFB38850F5622
:10767000D5AE3D1E392D3627D90F0A64A65C682188
:10768000545B9BD12E36243A670A0CB1E757930F0F
:1076900096EEB4D2919B1B9EC5C0804F20DC61A2A8
:1076A0004B775A691A121C16BA93E20A2AA0C0E54F
:1076B000E0223C43171B121D0D090E0BC78BF2ADC8
:1076C000A8B62DB9A91E14C819F157850775AF4C76
:1076D000DD99EEBB607FA3FD2601F79FF5725CBCD0
:1076E0003B6644C57EFB5B3429438B76C623CBDCEB
:1076F000FCEDB668F1E4B863DC31D7CA85634210AB
:107700002297134011C68420244A857D3DBBD2F8C0
:1077100032F9AE11A129C76D2F9E1D4B30B2DCF39B
:1077200052860DECE3C177D016B32B6CB970A999D2
:10773000489411FA64E947228CFCA8C43FF0A01ACF
:107740002C7D56D8903322EF4E4987C7D138D9C106
:10775000A2CA8CFE0BD4983681F5A6CFDE7AA52876
:107760008EB7DA26BFAD3FA49D3A2CE49278500D37
:10777000CC5F6A9B467E5462138DF6C2B8D890E8FF
:10778000F7392E5EAFC382F5805D9FBE93D0697CD2
:107790002DD56FA91225CFB399ACC83B7D1810A782
:1077A000639CE86EBB3BDB7B7826CD0918596EF4F1
:1077B000B79AEC019A4F83A86E95E665E6FFAA7E1C
:1077C000CFBC2108E815EFE69BE7BAD9366F4ACE61
:1077D000099FEAD47CB029D6B2A431AF233F2A3125
:1077E00094A5C63066A235C0BC4E7437CA82FCA6CA
:1077F000D090E0B0D8A733159804F14ADAEC41F7FD
:1078000050CD7F0EF691172FD64D768DB0EF434DAC
:107810004DAACC540496E4DFB5D19EE3886A4C1B94
:107820001F2CC1B85165467FEA5E9D04358C015D11
:107830007487FA73410BFB2E1D67B35AD2DB925249
:107840005610E93347D66D1361D79A8C0CA1377A5D
:1078500014F8598E3C13EB8927A9CEEEC961B735D0
:10786000E51CE1EDB1477A3CDFD29C5973F2553FFC
:10787000CE14187937C773BFCDF753EAAAFD5F5B03
:107880006F3DDF14DB447886F3AFCA81C468B93E2C
:107890003424382C40A3C25FC31D167225E2BC0CF1
:1078A000493C288B950DFF4101A83971B30C08DEC6
:1078B000E4B4D89CC156649084CB7B61B632D57059
:1078C0005C6C487457B8D042F45150A7417E536560
:1078D000171AC3A4273A965EAB3BCB6B9D1FF145AD
:1078E000FAACAB58E34B9303302055FA76ADF66D06
:1078F000CC88917602F5254CE54FFCD72AC5D7CB2D
:107900003526804462B58FA3B1DE495ABA25671B7C
:10791000EA45980EFE5DE1C02FC302754C8112F05E
:10792000468DA397D36BC6F98F03E75F9215959C9D
:107930006DBFEB7A5295DA59BED42D837458D3219A
:10794000E0492969C98E44C8C2756A898EF478797C
:1079500058996B3EB927DD71E1BEB64F88F017AD7F
:1079600020C966ACCE7DB43ADF63184A1AE582318D
:10797000519760335362457F64B1E0776BBB84AE4F
:1079800081FE1CA008F9942B48705868458F19FD9A
:10799000DE94876C7B52B7F873AB23D34B72E20251
:1079A0001FE3578F55662AABEBB20728B52F03C2EA
:1079B000C5869A7B37D3A5082830F287BF23B2A5A6
:1079C0000302BA6A16ED5C82CF8A2B1C79A792B4A7
:1079D00007F3F0F2694EA1E2DA65CDF40506D5BEF3
:1079E00034D11F62A6C48AFE2E349D53F3A2A05543
:1079F0008A0532E1F6A475EB830B39EC6040AAEFFF
:107A0000715E069F6EBD5110213EF98ADD963D06DE
:107A10003EDDAE05E64D46BD5491B58DC471055DA4
:107A200006046FD45060FF15981924FBBDD697E962
:107A30004089CC43D967779EE8B0BD428907888BDF
:107A400019E7385BC879DBEE7CA1470A427CE90F75
:107A500084F8C91E00000000800983862B3248ED9F
:107A6000111EAC705A6C4E720EFDFBFF850F56381E
:107A7000AE3D1ED52D3627390F0A64D95C6821A684
:107A80005B9BD15436243A2E0A0CB16757930FE70B
:107A9000EEB4D2969B1B9E91C0804FC5DC61A220A4
:107AA000775A694B121C161A93E20ABAA0C0E52A4B
:107AB000223C43E01B121D17090E0B0D8BF2ADC7C4
:107AC000B62DB9A81E14C8A9F157851975AF4C0772
:107AD00099EEBBDD7FA3FD6001F79F26725CBCF5CC
